{
  "contractName": "TaskContract",
  "abi": [
    {
      "anonymous": false,
      "inputs": [
        {
          "indexed": false,
          "internalType": "address",
          "name": "recipient",
          "type": "address"
        },
        {
          "indexed": false,
          "internalType": "uint256",
          "name": "taskId",
          "type": "uint256"
        }
      ],
      "name": "AddTask",
      "type": "event"
    },
    {
      "anonymous": false,
      "inputs": [
        {
          "indexed": false,
          "internalType": "uint256",
          "name": "taskId",
          "type": "uint256"
        }
      ],
      "name": "DeleteTask",
      "type": "event"
    },
    {
      "anonymous": false,
      "inputs": [
        {
          "indexed": false,
          "internalType": "uint256",
          "name": "taskId",
          "type": "uint256"
        }
      ],
      "name": "UpdateTask",
      "type": "event"
    },
    {
      "inputs": [
        {
          "internalType": "string",
          "name": "task",
          "type": "string"
        },
        {
          "internalType": "bool",
          "name": "isCompleted",
          "type": "bool"
        }
      ],
      "name": "addTask",
      "outputs": [],
      "stateMutability": "nonpayable",
      "type": "function"
    },
    {
      "inputs": [],
      "name": "getTasks",
      "outputs": [
        {
          "components": [
            {
              "internalType": "uint256",
              "name": "id",
              "type": "uint256"
            },
            {
              "internalType": "address",
              "name": "username",
              "type": "address"
            },
            {
              "internalType": "string",
              "name": "task",
              "type": "string"
            },
            {
              "internalType": "bool",
              "name": "isCompleted",
              "type": "bool"
            }
          ],
          "internalType": "struct TaskContract.Task[]",
          "name": "",
          "type": "tuple[]"
        }
      ],
      "stateMutability": "view",
      "type": "function",
      "constant": true
    },
    {
      "inputs": [
        {
          "internalType": "uint256",
          "name": "taskId",
          "type": "uint256"
        }
      ],
      "name": "deleteTask",
      "outputs": [],
      "stateMutability": "nonpayable",
      "type": "function"
    },
    {
      "inputs": [
        {
          "internalType": "uint256",
          "name": "taskId",
          "type": "uint256"
        },
        {
          "internalType": "string",
          "name": "task",
          "type": "string"
        },
        {
          "internalType": "bool",
          "name": "isCompleted",
          "type": "bool"
        }
      ],
      "name": "updateTask",
      "outputs": [],
      "stateMutability": "nonpayable",
      "type": "function"
    }
  ],
  "bytecode": "0x608060405234801561001057600080fd5b50610db0806100206000396000f3fe608060405234801561001057600080fd5b506004361061004b5760003560e01c8062d5c4771461005057806304a87e381461006c57806320df45811461008a578063560f3192146100a6575b600080fd5b61006a600480360381019061006591906106e5565b6100c2565b005b61007461016e565b6040516100819190610960565b60405180910390f35b6100a4600480360381019061009f9190610982565b6102da565b005b6100c060048036038101906100bb91906109de565b61040e565b005b81600084815481106100d7576100d6610a0b565b5b906000526020600020906004020160020190816100f49190610c46565b50806000848154811061010a57610109610a0b565b5b906000526020600020906004020160030160006101000a81548160ff0219169083151502179055507f848121d9bbc760f367933284969a25757bb17f6e6e8f468abcf3bfd19d3b1658836040516101619190610d27565b60405180910390a1505050565b60606000805480602002602001604051908101604052809291908181526020016000905b828210156102d15783829060005260206000209060040201604051806080016040529081600082015481526020016001820160009054906101000a900473ffffffffffffffffffffffffffffffffffffffff1673ffffffffffffffffffffffffffffffffffffffff1673ffffffffffffffffffffffffffffffffffffffff16815260200160028201805461022590610a69565b80601f016020809104026020016040519081016040528092919081815260200182805461025190610a69565b801561029e5780601f106102735761010080835404028352916020019161029e565b820191906000526020600020905b81548152906001019060200180831161028157829003601f168201915b505050505081526020016003820160009054906101000a900460ff16151515158152505081526020019060010190610192565b50505050905090565b600080805490509050600060405180608001604052808381526020013373ffffffffffffffffffffffffffffffffffffffff16815260200185815260200184151581525090806001815401808255809150506001900390600052602060002090600402016000909190919091506000820151816000015560208201518160010160006101000a81548173ffffffffffffffffffffffffffffffffffffffff021916908373ffffffffffffffffffffffffffffffffffffffff16021790555060408201518160020190816103ad9190610c46565b5060608201518160030160006101000a81548160ff02191690831515021790555050507f1f54e1ba1832d428fbd7e7792beaf62b1fc5a382c207ffd614209c1413e94fda3382604051610401929190610d51565b60405180910390a1505050565b6000818154811061042257610421610a0b565b5b90600052602060002090600402016000808201600090556001820160006101000a81549073ffffffffffffffffffffffffffffffffffffffff021916905560028201600061047091906104c0565b6003820160006101000a81549060ff021916905550507f8c2dccd1e8cc953301e21aa9acd0c9c15ed4464a558ed394b00c243d523eb538816040516104b59190610d27565b60405180910390a150565b5080546104cc90610a69565b6000825580601f106104de57506104fd565b601f0160209004906000526020600020908101906104fc9190610500565b5b50565b5b80821115610519576000816000905550600101610501565b5090565b6000604051905090565b600080fd5b600080fd5b6000819050919050565b61054481610531565b811461054f57600080fd5b50565b6000813590506105618161053b565b92915050565b600080fd5b600080fd5b6000601f19601f8301169050919050565b7f4e487b7100000000000000000000000000000000000000000000000000000000600052604160045260246000fd5b6105ba82610571565b810181811067ffffffffffffffff821117156105d9576105d8610582565b5b80604052505050565b60006105ec61051d565b90506105f882826105b1565b919050565b600067ffffffffffffffff82111561061857610617610582565b5b61062182610571565b9050602081019050919050565b82818337600083830152505050565b600061065061064b846105fd565b6105e2565b90508281526020810184848401111561066c5761066b61056c565b5b61067784828561062e565b509392505050565b600082601f83011261069457610693610567565b5b81356106a484826020860161063d565b91505092915050565b60008115159050919050565b6106c2816106ad565b81146106cd57600080fd5b50565b6000813590506106df816106b9565b92915050565b6000806000606084860312156106fe576106fd610527565b5b600061070c86828701610552565b935050602084013567ffffffffffffffff81111561072d5761072c61052c565b5b6107398682870161067f565b925050604061074a868287016106d0565b9150509250925092565b600081519050919050565b600082825260208201905092915050565b6000819050602082019050919050565b61078981610531565b82525050565b600073ffffffffffffffffffffffffffffffffffffffff82169050919050565b60006107ba8261078f565b9050919050565b6107ca816107af565b82525050565b600081519050919050565b600082825260208201905092915050565b60005b8381101561080a5780820151818401526020810190506107ef565b83811115610819576000848401525b50505050565b600061082a826107d0565b61083481856107db565b93506108448185602086016107ec565b61084d81610571565b840191505092915050565b610861816106ad565b82525050565b600060808301600083015161087f6000860182610780565b50602083015161089260208601826107c1565b50604083015184820360408601526108aa828261081f565b91505060608301516108bf6060860182610858565b508091505092915050565b60006108d68383610867565b905092915050565b6000602082019050919050565b60006108f682610754565b610900818561075f565b93508360208202850161091285610770565b8060005b8581101561094e578484038952815161092f85826108ca565b945061093a836108de565b925060208a01995050600181019050610916565b50829750879550505050505092915050565b6000602082019050818103600083015261097a81846108eb565b905092915050565b6000806040838503121561099957610998610527565b5b600083013567ffffffffffffffff8111156109b7576109b661052c565b5b6109c38582860161067f565b92505060206109d4858286016106d0565b9150509250929050565b6000602082840312156109f4576109f3610527565b5b6000610a0284828501610552565b91505092915050565b7f4e487b7100000000000000000000000000000000000000000000000000000000600052603260045260246000fd5b7f4e487b7100000000000000000000000000000000000000000000000000000000600052602260045260246000fd5b60006002820490506001821680610a8157607f821691505b602082108103610a9457610a93610a3a565b5b50919050565b60008190508160005260206000209050919050565b60006020601f8301049050919050565b600082821b905092915050565b600060088302610afc7fffffffffffffffffffffffffffffffffffffffffffffffffffffffffffffffff82610abf565b610b068683610abf565b95508019841693508086168417925050509392505050565b6000819050919050565b6000610b43610b3e610b3984610531565b610b1e565b610531565b9050919050565b6000819050919050565b610b5d83610b28565b610b71610b6982610b4a565b848454610acc565b825550505050565b600090565b610b86610b79565b610b91818484610b54565b505050565b5b81811015610bb557610baa600082610b7e565b600181019050610b97565b5050565b601f821115610bfa57610bcb81610a9a565b610bd484610aaf565b81016020851015610be3578190505b610bf7610bef85610aaf565b830182610b96565b50505b505050565b600082821c905092915050565b6000610c1d60001984600802610bff565b1980831691505092915050565b6000610c368383610c0c565b9150826002028217905092915050565b610c4f826107d0565b67ffffffffffffffff811115610c6857610c67610582565b5b610c728254610a69565b610c7d828285610bb9565b600060209050601f831160018114610cb05760008415610c9e578287015190505b610ca88582610c2a565b865550610d10565b601f198416610cbe86610a9a565b60005b82811015610ce657848901518255600182019150602085019450602081019050610cc1565b86831015610d035784890151610cff601f891682610c0c565b8355505b6001600288020188555050505b505050505050565b610d2181610531565b82525050565b6000602082019050610d3c6000830184610d18565b92915050565b610d4b816107af565b82525050565b6000604082019050610d666000830185610d42565b610d736020830184610d18565b939250505056fea2646970667358221220f83d6e34cb41c74d5f2b08d3b0fbf45d9d7232a17107dc64c4971f647fe0c52364736f6c634300080f0033",
  "immutableReferences": {},
  "source": "//SPDX-License-Identifier: MIT\npragma solidity ^0.8.4;\n\ncontract TaskContract {\n    event AddTask(address recipient, uint256 taskId);\n    event DeleteTask(uint256 taskId);\n    event UpdateTask(uint256 taskId);\n\n    struct Task {\n        uint256 id;\n        address username;\n        string task;\n        bool isCompleted;\n    }\n\n    Task[] private tasks;\n\n    function addTask(string memory task, bool isCompleted) external {\n        uint256 taskId = tasks.length;\n        tasks.push(Task(taskId, msg.sender, task, isCompleted));\n        emit AddTask(msg.sender, taskId);\n    }\n\n    function getTasks() external view returns (Task[] memory) {\n        return tasks;\n    }\n\n    function deleteTask(uint256 taskId) external {\n        delete tasks[taskId];\n        emit DeleteTask(taskId);\n    }\n\n    function updateTask(\n        uint256 taskId,\n        string memory task,\n        bool isCompleted\n    ) external {\n        tasks[taskId].task = task;\n        tasks[taskId].isCompleted = isCompleted;\n        emit UpdateTask(taskId);\n    }\n}\n",
  "sourcePath": "/home/webexpert/projects/D-App/truffle/contracts/Task.sol",
  "compiler": {
    "name": "solc",
    "version": "0.8.15+commit.e14f2714.Emscripten.clang"
  },
  "schemaVersion": "3.4.13",
  "updatedAt": "2023-04-05T12:03:19.204Z",
  "networkType": "ethereum",
  "devdoc": {
    "kind": "dev",
    "methods": {},
    "version": 1
  },
  "userdoc": {
    "kind": "user",
    "methods": {},
    "version": 1
  }
}